:1000000002308A00E72A0000FF00030E8301A100EE
:100010007F08A0000A08A7008A01A00E0408A20019
:100020007708A3007808A4007908A5007A08A6003C
:10003000831383120B1E1E288B1835288C308400E6
:10004000801E24288C1A3728220884002308F700F1
:100050002408F8002508F9002608FA0027088A0075
:10006000210E8300FF0E7F0E09008A1175298A1167
:1000700044288C1E39281808A8001A08F800A81C63
:10008000432818121816080039207808BD3C031DB3
:10009000722939207808C0004008C1002C084102AC
:1000A000031972294108333C031986284108323C60
:1000B000031986284108313C031986284108303C41
:1000C000031986284108343C031986284108353C29
:1000D000031986284108363C031986284108373C15
:1000E000031986284108383C031986284108393C01
:1000F000031986284108613C031986284108623C9F
:10010000031986284108733C031D72294108AC007D
:100110004108303A0319B728013A0319C328033AB2
:100120000319CF28013A0319DB28073A0319E728F6
:10013000013A0319F328033A0319FF28013A031976
:100140000B290F3A03191729013A03192329793A80
:1001500003192F29013A03193C29033A03194929A4
:10016000013A03195629223A03196229682983168C
:100170008613831286178030AB002D10B901B801A9
:10018000B701B60172297330AB002D10B901B80167
:10019000B701B6018316861383128617722964305D
:1001A000AB002D10B901B801B701B6018316861353
:1001B0008312861772295830AB002D10B901B8018F
:1001C000B701B601831686138312861772294B3046
:1001D000AB002D10B901B801B701B6018316861323
:1001E0008312861772293C30AB002D10B901B8017B
:1001F000B701B60183168613831286177229303031
:10020000AB002D10B901B801B701B60183168613F2
:100210008312861772292330AB002D10B901B80163
:10022000B701B6018316861383128617722914301C
:10023000AB002D10B901B801B701B60183168613C2
:100240008312861772290A30AB002D10B901B8014C
:10025000B701B601831686138312861772292D10F3
:100260000430BA00B901B801B7010130B6008316F5
:1002700086138312861772292D100330BA00B90134
:10028000B801B7010130B6008316861383128617B2
:1002900072292D100230BA00B901B801B70101303E
:1002A000B600831686138312861772292D1001302B
:1002B000BA00B901B801B701B600831686138312DC
:1002C000861772292D1483168613831286177229B6
:1002D000AB01B901B801B701B6012D108316861321
:1002E000831286178C128A1124282B08C000013033
:1002F000C10040084102031885296B30F700F70B55
:100300007F2982290000C10A7929831606138312E6
:1003100006171030F700F70B8B2900008316061321
:10032000831206138B108A112428831686148312D5
:100330008618AA290130AE07003003180130AF0734
:10034000003003180130B007003003180130B10746
:10035000AD1695298A11472BAD1ECE29B108031D74
:10036000BF29B008031DBF292F089B3C0318CE29C5
:10037000FF3A031DBF292E08403C0318CE29013047
:10038000BA07AD12B101B001AF01AE01B901B801B8
:10039000B701B6003A08073C031CBA018A11482B82
:1003A0003F0DF700F70DF70DF830F7051F08C739B7
:1003B00077049F002030F700F70BDC29DF290000CD
:1003C0001F151F19E1291E08BB003B08F800080093
:1003D000BA080319C62A360BC62AB708031DC62A4F
:1003E000B808031DC62AB908031DC62A01303A02FF
:1003F000F93E0318C62A073EC82A831686138312BD
:1004000086178316861183128615831606128312A9
:100410000612BF01D0210310780CAB00B101B0016E
:10042000AF01AE01C62A8316861383128617B10167
:10043000B001AF01AE0183160612831206168316B1
:10044000861183128611BF01D0217808803C0318E1
:10045000312A0130BF00D0210310780C803CAB0062
:10046000372A0130BF00D0210310780CAB00C62A18
:100470008316861383128617B101B001AF01AE0156
:1004800083168611831286158316061283120616AA
:10049000831605158312051D5B2ABF01D0210310A9
:1004A000780CAB00AD195B2A83160612103083124C
:1004B0008606AD152D1283160515831205196B2AB4
:1004C0008030AB002D1A6B2A83160612103083126F
:1004D0008606AD112D16C62A83168613831286173B
:1004E000831605158312051D8A2A0130BF00D0210D
:1004F0007808273C031C8A2ABF01D0210310780CFE
:10050000AB00AD198A2A831686110830831286063D
:10051000AD152D1283160515831205199A2A803000
:10052000AB002D1A9A2A831686110830831286068C
:10053000AD112D16C62A83168613831286172D1425
:10054000B101B001AF01AE01AD102D11C62AB1014C
:10055000B001AF01AE01AD18BC2A2D19BC2A83161B
:1005600006128312061683168611831286158316C9
:100570008613831286172D14C62A831686138312B8
:1005800086132D10B101B001AF01AE018A11492BC4
:100590000A108A140A118207FD29132A382A6C2AA4
:1005A0009B2AA72ABD2A3F30840083130008031921
:1005B000E62A0630F800F701F70BDC2AF80BDB2AF5
:1005C0007B30F700F70BE22A800BD92A08000308DA
:1005D0001F398300A801FF3083169900A2309800CC
:1005E00090308312980083161F129F121B088039C7
:1005F0009B0007309C008312AA015030A9002430D0
:10060000D000D201A030D1004D308316A0000130BF
:10061000A2001030A1005D3083120317900001305A
:100620009200903091005D3083169000920191010C
:100630008312031383132D10AD108030AB002D11E6
:1006400007308316850025308600861383128613B3
:1006500083168611831286118316061283120612E0
:1006600083161F129F121B08803903389B001F132B
:1006700083121F139F1783169F1383121F140B16C9
:1006800083168C160113C03083128B049529AC2974
:10069000E8292D1C9B2B7F30BC003C08003C031834
:1006A000772B831686118312861183160612831206
:1006B00006163C08AB00BF01D0217808BE00BF0081
:1006C000D3228316861483128618692B2D100730C7
:1006D000BA00AD1C732B3C0B732B2D1D732B2D10EF
:1006E0000730BA002D112D1C772BBC034D2B013088
:1006F000BD003D087F3C031C9B2B83160612831212
:1007000006128316861183128615AD143D08AB00C0
:10071000BF01D0217808BE00BF00D3228316861403
:1007200083128618962B2D100730BA002D18992B9E
:0A0730009B2BBD0A792B462B6300BA
:04400E00223FFF3F0F
:00000001FF
;PIC16F88
;CRC=F59B  CREATED="15-May-18 15:21"
